:020000040800F2
:10000000102B0120F95D0008395E00083D5E0008F4
:10001000415E0008455E0008495E000800000000DF
:100020000000000000000000000000004D5E00081D
:10003000515E000800000000555E0008655D000884
:10004000595E00085D5E0008615E0008655E00089C
:10005000695E00086D5E0008715E0008755E00084C
:10006000795E00087D5E0008815E0008855E0008FC
:10007000895E00088D5E0008915E0008955E0008AC
:10008000995E00089D5E0008A15E0008A55E00085C
:10009000A95E0008AD5E0008B15E0008B55E00080C
:1000A000B95E0008BD5E0008C15E0008C55E0008BC
:1000B000C95E0008CD5E0008D15E0008D55E00086C
:1000C000D95E0008DD5E0008E15E0008E55E00081C
:1000D000E95E0008ED5E0008F15E0008F55E0008CC
:1000E000F95E0008FD5E0008015F0008055F00087A
:1000F000095F00080D5F0008115F0008155F000828
:10010000195F00081D5F0008215F0008255F0008D7
:10011000295F00082D5F0008315F0008355F000887
:10012000395F00083D5F0008415F0008455F000837
:10013000495F00084D5F0008515F0008555F0008E7
:10014000595F00085D5F0008615F0008555D0008A9
:10015000655F0008695F00086D5F0008715F000857
:10016000755F0008795F00087D5F0008815F000807
:10017000855F0008895F00088D5F000800000000AF
:10018000915F0008955F0008995F00089D5F000877
:10019000A15F0008A55F0008A95F0008AD5F000827
:1001A000B15F0008B55F0008B95F000800F5E070B6
:1001B0000268914203D343689A18914202D380683F
:1001C0000028F5D17047DFF86007016891B94FF456
:1001D000803181604FF4805141604FF0FF31C16048
:1001E00001610421DFF844274161C2F8BC11DFF846
:1001F000401701600120704701F1080313F0070365
:1002000005D001F10803C3F1080303F007035918EF
:10021000D21A8161C26042F001034B605118282359
:100220004B60DFF804170969C16170472DE9F04F91
:10023000064601F1080010F0070083B008BF8846A9
:1002400007D001F10800C0F1080000F0070000EB42
:10025000010802F1080010F0070006D002F10800C2
:10026000C0F1080000F0070082181546A5EB080051
:10027000A0EB030943F0030003EB080BC8F80400EC
:10028000AB4528BF01F012FA2879C00758BF01F02A
:100290000DFAB9F1100F38BF01F008FAB0698542C4
:1002A00009D1F0684844F060C6F818B040F0010089
:1002B000CBF804006DE1706985420BD1B068484409
:1002C000B060C6F814B040F00101CBF8041040F85B
:1002D0000B005EE1686800F00301012940F0AD8089
:1002E000C008C0000190C00820283AD2D5F808A064
:1002F000EF680090BD4208BF01F0D8F9554508BF2E
:1003000001F0D4F968680099C008C000B0EBC10FD3
:1003100018BF01F0CBF9009806EBC00000F12801EE
:100320008A4507D031698A45C0F08280DAF80C101E
:10033000A9427DD1574506D1009A306801219140EC
:100340008843306076E02830874205D030698742A4
:100350006ED3B868A8426BD1CAF80C70C7F808A071
:1003600068E0EF68D5F818A0AF420CD0A8683169F2
:10037000884223D3C168A94204BFB968A9421DD1EC
:10038000C760B8601CE005F11400076837B905F1D3
:1003900010000768A7B101E00846076807F11401DB
:1003A0000A68002A02BF07F110010A68002AF3D187
:1003B0003169884202D30021016001E001F076F941
:1003C000BAF1000F36D0E86906EB800000F59870AE
:1003D00001688D4208D10760A7B9EA6970680121F8
:1003E00091408843706025E03069824508D3DAF88F
:1003F0001000A84214BFCAF81470CAF8107001E0C7
:1004000001F054F9B7B13069874211D3C7F818A089
:10041000296929B1814226BF39618F6101F046F90E
:10042000686938B13169884202D37861876101E037
:1004300001F03CF901984519814468684008400082
:1004400068604FEAD90549F00100CBF8040049F88B
:100450000B90202D23D206EBC50000F12807B9F13F
:10046000100F38BF01F022F9306820FA05F1C907F2
:10047000BA4604D40121A9400843306006E0B868B8
:10048000316988422CBF824601F010F9C7F808B0E4
:10049000CAF80CB0CBF808A0CBF80C7079E05FEA92
:1004A000192108BF002023D0B1F5803F28BF1F20AD
:1004B0001ED2A1F58070000C00F008008140A1F56B
:1004C0008052120C02F004029140A1F580431B0CF3
:1004D000C0F10E0003F00203801AC01A994000EB2D
:1004E000D130C11D29FA01F101F0010101EB4000F9
:1004F000CBF81C000022CBF81420CBF8102006EB20
:100500008001726822FA00F3DB0701F5987107D4C5
:10051000012303FA00F010437060C1F800B01DE041
:100520001F2809680EBF00204008C0F1190009FA11
:1005300000F000E011464A68D208D2004A4514D0C3
:10054000C20F01EB820202F1100340001A68002A78
:10055000F0D1306983421AD3C3F800B0CBF8181039
:10056000CBF80CB0CBF808B013E032698868914240
:1005700028BF90420BD3C0F80CB0C1F808B0CBF83C
:100580000800CBF80C100020CBF8180001E001F0B7
:100590008DF808F1080000F0F9BD2DE9FA4D054687
:1005A000DFF88403006884B008B9FFF70CFEDFF8B9
:1005B00078030499806841182F31401E21EA000019
:1005C0000499814280F0AB8105F5D876B16841B1DC
:1005D000D5F8B0218018824280F0A1818142C0F01C
:1005E0009E8101F07DF800281EBF0446D0F80080EF
:1005F00014F1010F00F09381D5F8B0014044C5F823
:10060000B0017168814238BF01467160A86980BB42
:10061000286908B1844200D22C613461C6F8148084
:100620000020F06105F12801BF48006868624FF0C2
:10063000FF3028620020C960896001F10802801C37
:100640001031D26020289260F5D3B848854203D19A
:10065000A8F12802214629E055F8040CC00805EB52
:10066000C000A0F1080108EB0400401AA0F1280224
:100670001CE005F5E071084600E08068D0B1026832
:1006800043689A189442F8D1027B120712D4AA69DF
:1006900003689A420ED347683B449A420AD208EB59
:1006A00007014160E868A96908EB00022846FFF7E6
:1006B000A3FD1EE128698442084638BF2C6108EB7F
:1006C000040100E0806880B102688A42FAD1017BAF
:1006D00009070AD404604168414441602146049BF3
:1006E000284606B0BDE8F04DA0E5AF69394628467A
:1006F000FFF75CFD01684068401802902F3800F158
:10070000080111F0070105D000F10801C1F108014D
:1007100001F00701081807F11001884234BF009763
:10072000009000980830019004F10801009800F151
:10073000180A11F007014FF0000BA8F1280005D0AE
:1007400004F10801C1F1080101F007010A19401A7A
:10075000AA61E86040F001015160801828214160E1
:1007600071480069E861019810F0070018BF00F0B7
:100770009DFF00991B20486005F5E071B1E80C5021
:100780000198A0E80C503461C6F81480C6F81CB07B
:100790000198B061029800E08A460722CAF8042056
:1007A0000AF104010A1D82420BF1010BF4D3BBF1E3
:1007B000020FB8BF00F07AFF0098B84200F09980AD
:1007C000C01BC119C4084A68520852004A6040F070
:1007D00001017960C051202C20D205EBC40101F148
:1007E0002806102838BF00F061FF286820FA04F1BD
:1007F000C907B04604D40121A1400843286006E09F
:10080000B068296988422CBF804600F04FFFB7606E
:10081000C8F80C70C7F80880FE606AE0010A08BFDB
:10082000002223D0B1F5803F28BF1F221ED2A1F5A0
:100830008072120C02F008029140A1F580531B0C4B
:1008400003F004039940A1F58044240CC2F10E0288
:1008500004F00204D21A121BA14002EBD131CA1DCE
:1008600020FA02F202F0010202EB4102FA610023D7
:100870007B613B6105EB82016B6823FA02F4E407BC
:1008800001F5987105D401209040184368600F600D
:100890001CE01F2A09680EBF00225208C2F119028B
:1008A00000FA02F200E019464B68DB08DB008342E5
:1008B00010D0D30F01EB830303F11004520023681F
:1008C000002BF0D12869844211D32760B961FF6001
:1008D000BF600EE02A698868914228BF904206D323
:1008E000C7608F60B860F9600020B86101E000F077
:1008F000DDFEE8680499814211D2401AE860A969D6
:10090000049A5218AA6140F001005060049840F027
:100910000300486006B001F10800BDE8F08D00203A
:1009200006B0BDE8F08D0000EC0A0120F8080120B7
:100930006859883C2DE9F04D0446884600265FEA58
:100940001820C8F1000B08BF002123D0B0F5803F6C
:1009500028BF1F211ED2A0F58071090C01F00801EB
:100960008840A0F58052120C02F004029040A0F5DD
:1009700080431B0CC1F10E0103F00203891AC91A4E
:10098000984001EBD030C11D28FA01F101F00101BE
:1009900001EB400104EB8100D0F8300128B31F299E
:1009A0000EBF00224A08C2F1190208FA02F200231F
:1009B00000E052004568ED08ED00A5EB08055D4537
:1009C00003D25FEA050B06460BD04569D70F00EB53
:1009D0008700002D00691CBF85422B460028E8D106
:1009E000184600283AD1002E3AD101208840400014
:1009F000414208436168084000F065814142084077
:100A0000411E080B00F0100021FA00F2510901F01C
:100A10000801CA40930803F00403DA40550805F0C2
:100A200002050818EA401818C2F340072844384461
:100A300022FA07F1081804EB8000D0F830010DE02D
:100A400008464168C908C900A1EB080159453CBFE7
:100A50008B46064601690029F2D140690028F0D191
:100A6000002E00F03081A068A0EB0800834580F0E4
:100A70002A8120698642C0F024817068C008C000C5
:100A800008EB0B01884208EB060518BF00F00EFECC
:100A9000AE4280F01681F768D6F818A0B7420CD0A5
:100AA000B0682169884223D3C168B14204BFB968E4
:100AB000B1421DD1C760B8601CE006F114000768A0
:100AC00037B906F110000768A7B101E008460768CA
:100AD00007F114010A68002A02BF07F110010A6831
:100AE000002AF3D12169884202D30021016001E08C
:100AF00000F0DCFDBAF1000F38D0F06904EB8000A3
:100B000000F5987001688E4209D10760380014D151
:100B1000F2696068012191408843606026E02069A5
:100B2000824508D3DAF81000B04214BFCAF8147036
:100B3000CAF8107001E000F0B9FDBFB1206987422A
:100B400012D3C7F818A0306930B12169884226BF96
:100B50003861876100F0AAFD706938B12169884267
:100B600002D37861876101E000F0A0FDBBF1100FB6
:100B70000CD208EB0B0040F00300706008EB0B0098
:100B80008019416841F00101416096E048F003009E
:100B900070604BF0010068604FEADB004BF805B075
:100BA00020281DD204EBC00101F12807216821FA99
:100BB00000F2D207BB4605D4012202FA00F0084336
:100BC000206006E0B868216988422CBF834600F0A7
:100BD0006DFDBD60CBF80C50C5F808B0EF606CE05F
:100BE0005FEA1B2108BF002023D0B1F5803F28BF5A
:100BF0001F201ED2A1F58070000C00F0080081407B
:100C0000A1F58052120C02F004029140A1F580433C
:100C10001B0CC0F10E0003F00203801AC01A9940A9
:100C200000EBD130C11D2BFA01F101F0010101EB04
:100C30004000E86100226A612A6104EB8001626879
:100C400022FA00F3DB0701F5987106D4012303FAB9
:100C500000F0104360600D601CE01F2809680EBFA3
:100C600000204008C0F119000BFA00F000E0114626
:100C70004A68D208D2005A4510D0C20F01EB820256
:100C800002F1100340001A68002AF0D12069834263
:100C900011D31D60A961ED60AD600EE02269886826
:100CA000914228BF904206D3C5608D60A860E9607C
:100CB0000020A86101E000F0F9FC06F10800BDE8A1
:100CC000F08D00F0F3FC0020BDE8F08D2DE9F84F29
:100CD00004468846606841420840411E080B00F007
:100CE0001000C1404A0902F00802D1408B0803F00D
:100CF0000403D9404D0805F002051018E940181802
:100D0000C1F3400628443018F140081804EB800075
:100D1000D0F830014168C908C9000646A1EB080AAD
:100D200009E008464168C908C900A1EB080151451E
:100D30003CBF8A46064601690029F2D14069002875
:100D4000F0D120698642C0F0C4807068C00808EB0A
:100D50000A09C000484508EB060B18BF00F0A6FCC6
:100D60005E4580F0B680F768B569B7420CD0B068D0
:100D70002169884223D3C168B14204BFB968B14236
:100D80001DD1C760B8601CE006F11400076837B9D0
:100D900006F110000768A7B101E00846076807F1EF
:100DA00014010A68002A02BF07F110010A68002A2C
:100DB000F3D12169884202D30021016001E000F0F3
:100DC00075FC002D34D0F06904EB800000F59870BC
:100DD00001688E4209D10760380011D1F26960685C
:100DE000012191408843606022E02069854205D35B
:100DF0002869B04214BF6F612F6101E000F056FC1A
:100E0000B7B12069874211D3BD61306930B1216922
:100E1000884226BF3861876100F048FC706938B1AC
:100E20002169884202D37861876101E000F03EFCCD
:100E3000BAF1100F09D249F00300706009EB060007
:100E4000416841F0010141603FE048F003007060FB
:100E50004AF00100CBF804004AF80BA0D4F808804F
:100E60004FEAD805202D28BF00F020FCB8F1000F74
:100E700027D0D4F81490009504EBC50000F12805A4
:100E8000B8F1100F38BF00F011FC2068009920FA6B
:100E900001F1C9072F4605D4009A0121914008436A
:100EA000206006E0A868216988422CBF074600F050
:100EB000FDFBC5F80890C7F80C90C9F80870C9F890
:100EC0000C50C4F808A0C4F814B006F10800BDE83E
:100ED000F28F00F0EBFB0020BDE8F28F2DE9F04F20
:100EE00083B00546C046C046F52DDFF8B84780F010
:100EF00002810B2D31BF102705F10B00C008C70080
:100F00002068FE08F04010F0030F42D0C04300F00C
:100F10000100861904EBC60000F12808F700D8F894
:100F200008506868C008C000B84218BF00F0BEFB97
:100F3000D5F80890454508BF00F0B8FB4D4508BFFF
:100F400000F0B4FB6868C008C000B84218BF00F0E9
:100F5000ADFBC84505D120680121B1408843206020
:100F60000DE02069814508D3D9F80C00A84204D1CE
:100F7000C8F80890C9F80C8001E000F097FB47F032
:100F80000300686078190835416841F0010141604B
:100F9000F9E0A168B94280F0C080002800F0A2808A
:100FA000012505FA06F149004A42B04011430840C4
:100FB00041420840411E080B00F01000C1404A09A0
:100FC00002F00802D1408B0803F00403D9404E0818
:100FD00006F002061018F1401818C1F34008301846
:100FE000404421FA08F101EB000804EBC80000F1CD
:100FF00028094FEAC80AD9F808607068C008C0001C
:10100000504518BF00F052FBD6F808B04E4508BF57
:1010100000F04CFB5E4508BF00F048FB7068C0085C
:10102000C000504518BF00F041FBD94505D12068EC
:1010300005FA08F1884320600DE02069834508D354
:10104000DBF80C00B04204D1C9F808B0CBF80C9022
:1010500001E000F02BFB47F003007060AAEB0708EB
:10106000B819019048F0010001994860019848F8CA
:101070000080A7684FEAD70ABAF1200F28BF00F016
:1010800015FB47B3CDF800A004EBCA00D4F81490C8
:1010900000F1280A102F38BF00F008FB20680099E3
:1010A00020FA01F1C907D34605D4009905FA01F1E8
:1010B0000843206007E0DAF80800216988422CBF65
:1010C000834600F0F3FACAF80890CBF80C90C9F800
:1010D00008B0C9F80CA0C4F8088006F1080501980A
:1010E000606150E06068C0B339462046FFF7EEFD0E
:1010F000050012D047E015F1400F28BF4FF0FF3731
:101100000BD205F10B00C008C700606828B1394652
:101110002046FFF70FFC050035D1A068B8421CD36C
:10112000C11B626910290AD3B8186061A16041F03F
:1011300001034360095047F0030050600AE00021BA
:10114000A160616140F0030151608018416841F085
:101150000101416002F1080515E0E06887420DD207
:10116000C01BA169E0607A18A26140F001005060E4
:1011700001F1080547F00300486004E039462046C5
:10118000FFF70BFA0546C046C046284603B0BDE847
:10119000F08F00B970472DE9F047A0F10804C04670
:1011A000C046DFF8005528698442C0F07482616847
:1011B00001F00302012A00F06E82CA084FEAC20859
:1011C000CA0708EB040936D4226811F0030F00F0B7
:1011D0006482A41A84429044C0F05D8269698C42A2
:1011E00000F0D880D608202E70D2D4F80CA0A768C2
:1011F000544508BF00F05AFABC4208BF00F056FA46
:101200006068C008C000B0EBC60F18BF00F04EFA0F
:1012100005EBC60000F128018F4205D029698F42F5
:1012200051D3F968A1424ED1BA453DD12868012178
:10123000B140884328604C4580F02D82D9F80400E5
:10124000C10740F12882810700F17A81A9698945A7
:1012500040F0B580E868AC614044E86040F00101CE
:10126000616069698C4202D100216961A960E96904
:10127000814280F01282DFF83004006808B9FEF77E
:10128000A2FFA969002900F00882E868292824BF84
:101290002846FEF78BFFE869E968884280F0FD8107
:1012A0004FF0FF30E861F8E12830824506D0286928
:1012B000824508D3DAF80800A04204D1C7F80CA090
:1012C000CAF80870B7E700F0F1F9B4E7E768A66973
:1012D000A7420BD0A168814222D3C868A04204BFB4
:1012E000B868A0421CD1CF60B9601BE004F11401C2
:1012F0000F6837B904F110010F689FB101E0114682
:101300000F6807F114021368002B02BF07F11002E7
:101310001368002BF3D1814202D30020086001E062
:1013200000F0C4F9002E86D0E06905EB800000F5DE
:10133000987001688C4209D10760380011D1E269C8
:101340006868012191408843686074E72869864293
:1013500005D33069A04214BF7761376101E000F026
:10136000A5F9002F3FF467AF28698742ABD3BE6170
:10137000216929B1814226BF39618F6100F096F958
:10138000606900283FF457AF296988429BD3786190
:10139000876150E799F8040000F0030003287FF408
:1013A0004AAFC5F80880D9F8040040084000C9F8E1
:1013B000040048F00100606048F804806DE169694C
:1013C000894508D1A8686C614044A86040F00101DB
:1013D0006160005161E1C008C0004FEAD00ABAF173
:1013E000200F804436D2D9F80C70D9F80860B9457E
:1013F00008BF00F05BF9B14508BF00F057F9D9F814
:101400000400C008C000B0EBCA0F18BF00F04EF9CE
:1014100005EBCA0000F128018E4206D029698E42F0
:10142000C0F08180F16849457DD1B74206D1286876
:10143000012101FA0AF18843286076E028308742CA
:1014400005D0286987426ED3B86848456BD1F760EC
:10145000BE606AE0D9F80C70D9F818604F450DD01D
:10146000D9F808002969884223D3C168494504BFD7
:10147000B96849451DD1C760B8601CE009F1140086
:10148000076837B909F110000768A7B101E00846FD
:10149000076807F114010A68002A02BF07F110016A
:1014A0000A68002AF3D12969884202D30021016029
:1014B00001E000F0FBF8002E37D0D9F81C0005EB56
:1014C000800000F59870016889450AD107603800EE
:1014D00012D1D9F81C2068680121914088436860C6
:1014E00023E02869864205D33069484514BF7761F7
:1014F000376101E000F0DAF8BFB12869874212D302
:10150000BE61D9F8101029B1814226BF39618F61BF
:1015100000F0CCF8D9F8140038B12969884202D318
:101520007861876101E000F0C1F848F00100606077
:1015300048F80480686984420BD1C5F80880ACE0A3
:1015400040084000C9F8040048F00100606048F815
:1015500004804FEAD807202F22D205EBC70000F104
:101560002809B8F1100F38BF00F0A0F8286820FA59
:1015700007F1C9074E4604D40121B9400843286049
:1015800007E0D9F80800296988422CBF064600F018
:101590008DF8C9F80840F460A660C4F80C907CE0AF
:1015A0005FEA182008BF002123D0B0F5803F28BF94
:1015B0001F211ED2A0F58071090C01F0080188409E
:1015C000A0F58052120C02F004029040A0F5804376
:1015D0001B0CC1F10E0103F00203891AC91A9840CD
:1015E00001EBD030C11D28FA01F101F0010101EB3E
:1015F0004001E16100226261226105EB81006A68BD
:1016000022FA01F3DB0700F5987006D4012303FAF0
:1016100001F11143696004601CE01F2900680EBFDE
:1016200000214908C1F1190108FA01F100E0104652
:101630004268D208D200424510D0CA0F00EB8202A5
:1016400002F1100349001A68002AF0D129698B427F
:1016500011D31C60A061E460A4600EE02A69816877
:10166000904228BF914206D3CC608460A160E060C4
:101670000020A06101E000F019F8286A401E2862ED
:101680000BD1D5F8C80100E080680028FCD14FF0EC
:10169000FF30286201E000F009F8C046C046BDE80E
:1016A000F0870000F8080120EC0A0120012000F07A
:1016B0002DB810B450F8041B81B102681218001D37
:1016C00050F8043BDC0744BFA9F10104E31852F8C9
:1016D000044B43F8044B091FF9D1EBE710BC7047EA
:1016E0000749086808B1002070470648C008C000D4
:1016F00008600549C908C900091A0160704700BFA0
:10170000080B0120172B0120106B012080B5C0466B
:10171000C046024A11001820ABBEFBE726000200BB
:101720000EB418B504000898012817D1A06B30F446
:101730008030A063E068DFF8B0170840E060E06840
:1017400030F44010E0600D98012803D1E06850F4B7
:101750008010E060200000F05CFE09E0E06850F0DE
:101760004000E060200000F054FE5FF48030A06391
:101770000698012807D1A06850F00C00A060A0686E
:1017800050F02000A060002012BC5DF810FB0100AA
:10179000886850F001008860002070470100886868
:1017A0004008400088600020704738B504000D00F4
:1017B000E06830F0C040E060EDB2012D04D1E06897
:1017C00050F00050E06006E0EDB2002D03D1E0687B
:1017D00050F08040E060322000F078FE002032BD02
:1017E0000EB430B504000025A06B50F40020A063B7
:1017F0000B98002803D1A06B50F40010A0630020C8
:1018000014F56061086014F50060006814F500616B
:101810000860089801280CD10598002804D10021FF
:10182000200000F0D7F808E00121200000F0D2F8F5
:1018300003E00321200000F0CDF81021200000F08B
:10184000A7F8200000F0B6F8002014F50061086148
:10185000002014F5006148615FF0FF3014F500616D
:101860008861002014F50061C8610020050003981C
:10187000854222D214EB451010F510600068002854
:1018800007D55FF0904014EB451111F51061086029
:1018900005E0002014EB451111F51061086014EB10
:1018A000451010F510600021016114EB451010F592
:1018B0001060FF2181606D1CD9E7002005000398AE
:1018C000854222D214EB451010F5306000680028E4
:1018D00007D55FF0904014EB451111F530610860B9
:1018E00005E0002014EB451111F53061086014EBA0
:1018F000451010F530600021016114EB451010F522
:101900003060FF2181606D1CD9E714F5006000692B
:1019100030F4807014F5006108610698012812D136
:10192000DFF8280B14F50061086314F50060006B04
:1019300040F4803050F0030014F50061086314F5A2
:101940000060006B05000020A0617FF080406061B6
:101950000698002803D1A06950F01000A061A0698A
:10196000DFF8EC1A0843A0610998002803D0A069A9
:1019700050F00800A0610B98012805D1A06940F043
:10198000804050F00400A061002030BC5DF810FBE6
:1019900002000023480150F0200010615B1CDFF8BA
:1019A000B40A834201D3032003E010698006F5D412
:1019B000002070470100002210200861521CDFF84F
:1019C000940A824201D3032003E00869C006F5D4DB
:1019D00000207047020012F500600068C9B2084399
:1019E00012F500631860002070470100002011F517
:1019F0000062926812F0060F02D10022100019E076
:101A000011F50062926812F00602022A06D011F562
:101A10000062926812F00602062A02D10322100028
:101A200008E011F50062926812F00602042A01D162
:101A300002221000C0B2704730B40200487801287A
:101A40002ED112F50060C069012391F90040A34036
:101A50009BB2184312F50063D861087812EB40106E
:101A600010F510600068000445D4087812EB4010AF
:101A700010F510600B7812EB431313F510631B681D
:101A80008C686405640DCD7854EA85440D7854EA79
:101A9000855444F0805454F40044234303602AE006
:101AA00012F50060C069012391F90040A34050EA9B
:101AB000034012F50063D861087812EB401010F56E
:101AC00030600068000416D4087812EB401010F55E
:101AD00030600B7812EB431313F530631B688C688E
:101AE0006405640DCD7854EA854444F0805454F480
:101AF000004423430360002030BC704710B4020050
:101B00004878012826D112F50060C06B012391F9B5
:101B10000040A3409BB2984312F50063D86312F5CE
:101B20000060C069012391F90040A3409BB2984333
:101B300012F50063D861087812EB401010F51060C0
:101B40000B7812EB431313F510631B6833F4004357
:101B5000036025E012F50060C06B012391F900409D
:101B6000A34030EA034012F50063D86312F5006029
:101B7000C069012391F90040A34030EA034012F507
:101B80000063D861087812EB401010F530600B78D4
:101B900012EB431313F530631B6833F40043036007
:101BA000002010BC7047F8B504000D001600002797
:101BB0006878012840F0EE80686900282AD12878EA
:101BC00014EB401010F51060297814EB411111F559
:101BD000106109696FF3DC410161287814EB401052
:101BE00010F51060297814EB411111F510610969A5
:101BF00051F400210161287814EB401010F51060B9
:101C0000297814EB411111F510610969C90CC90457
:101C1000016162E0287814EB401010F5106029781B
:101C200014EB411111F510610969C90CC904016176
:101C3000287814EB401010F51060297814EB41114E
:101C400011F5106109696FF3DC410161287814EB2B
:101C5000401010F51060297814EB411111F5106156
:101C600009696A69AB689A18521EAB68B2FBF3F255
:101C7000DFF8E43713EAC24211430161287814EB1C
:101C8000401010F51060297814EB411111F5106126
:101C900009696A695203520B11430161E87801280E
:101CA0001BD1287814EB401010F51060297814EB44
:101CB000411111F51061096931F0C04101612878C5
:101CC00014EB401010F51060297814EB411111F558
:101CD0001061096951F000510161F6B2012E07D17E
:101CE000287814EB401010F510602969416110E06C
:101CF000E87801280DD0686900280AD014F5006042
:101D0000406B012195F900209140084314F50061D2
:101D10004863E878012821D114F500608068C00587
:101D20000ED4287814EB401010F51060297814EBCD
:101D3000411111F51061096851F0005101600DE089
:101D4000287814EB401010F51060297814EB41113D
:101D500011F51061096851F080510160287814EB89
:101D6000401010F51060297814EB411111F5106145
:101D7000096851F004410160E878012840F0B18021
:101D8000F6B200966B699BB22A78E968200000F0F1
:101D9000A3F9A6E0287814EB401010F530602978FC
:101DA00014EB411111F530610969C90CC9040161D5
:101DB000287814EB401010F53060297814EB4111AD
:101DC00011F5306109696FF3DC4101616869002830
:101DD0001ED1287814EB401010F53060297814EBF0
:101DE000411111F530610969AA685203520B114380
:101DF0000161287814EB401010F53060297814EB5D
:101E0000411111F53061096951F4002101612BE0A4
:101E10006869A9680818401EA968B0FBF1F00700BE
:101E2000287814EB401010F53060297814EB41113C
:101E300011F530610969BFB2DFF81C2612EAC7420A
:101E400011430161287814EB401010F530602978B7
:101E500014EB411111F530610969AA68BFB27A43E8
:101E60005203520B11430161F6B2012E06D12878BC
:101E700014EB401010F53060E9684161E878012802
:101E800021D114F500608068C0050ED4287814EBC9
:101E9000401010F53060297814EB411111F53061D4
:101EA000096851F0005101600DE0287814EB4010F2
:101EB00010F53060297814EB411111F53061096893
:101EC00051F080510160287814EB401010F530601B
:101ED000297814EB411111F53061096851F0044182
:101EE00001600020F2BD0000BFFFBDFF30B4030061
:101EF0004878012840F09680486900282AD108785F
:101F000013EB401010F510600C7813EB441414F52B
:101F1000106424696FF3DC440461087813EB40100B
:101F200010F510600C7813EB441414F51064246958
:101F300054F400240461087813EB401010F510608D
:101F40000C7813EB441414F510642469E40CE404D5
:101F500004613FE0087813EB401010F510600C7836
:101F600013EB441414F510642469E40CE4040461D4
:101F7000087813EB401010F510600C7813EB441444
:101F800014F5106424696FF3DC44046188684C69BB
:101F9000A04201D288684861087813EB401010F520
:101FA00010600C7813EB441414F51064246954F495
:101FB00000240461087813EB401010F510600C78D1
:101FC00013EB441414F5106424694D696D036D0B13
:101FD0002C430461D2B2012A07D1087813EB4010D8
:101FE00010F510600C6944610DE0486900280AD0C2
:101FF00013F50060406B012491F90050AC40204380
:1020000013F500646063087813EB401010F510605E
:102010000C7813EB441414F51064246854F0044451
:10202000046056E0087813EB401010F530600C782F
:1020300013EB441414F530642469E40CE4040461E3
:10204000087813EB401010F530600C7813EB441453
:1020500014F5306424696FF3DC4404614869002896
:1020600001D088684861087813EB401010F53060A3
:102070000C7813EB441414F53064246954F40024F0
:102080000461087813EB401010F530600C7813EB06
:10209000441414F5306424698D686D036D0B2C4372
:1020A0000461D2B2012A06D1087813EB401010F572
:1020B0003060CC684461087813EB401010F5306054
:1020C0000C7813EB441414F53064246854F0044481
:1020D0000460002030BC7047F0B40500049C00266A
:1020E0000027E4B2002C17D19BB2D81C5FF0040C7F
:1020F00090FBFCF0060000200700B7420CD20868F5
:10210000D2B24FF4805C0CFB025C1CF5805CCCF816
:1021100000007F1C091DF0E70020F0BC704730B4C0
:1021200003000800002192B2D41C042594FBF5F4AE
:1021300000252900A14206D213F580552D680560BF
:10214000491C001DF6E730BC7047020048780128A2
:1021500024D1087812EB401010F5106000680028B8
:102160000DD4087812EB401010F510600B7812EBCC
:10217000431313F510631B6833F080430360087842
:1021800012EB401010F510600B7812EB431313F5AF
:1021900010631B6853F40013036023E0087812EB0C
:1021A000401010F53060006800280DD4087812EB5C
:1021B000401010F530600B7812EB431313F53063C9
:1021C0001B6833F080430360087812EB401010F571
:1021D00030600B7812EB431313F530631B6853F434
:1021E000001303600020704702004878012822D1C4
:1021F000087812EB401010F510600B7812EB4313C7
:1022000013F510631B6833F400130360C8780328C8
:1022100002D0C878022830D1087812EB401010F5AF
:1022200010600B7812EB431313F510631B6853F027
:102230008053036021E0087812EB401010F5306005
:102240000B7812EB431313F530631B6833F4001360
:102250000360C878032802D0C87802280DD1087816
:1022600012EB401010F530600B7812EB431313F5AE
:1022700030631B6853F080530360002070470200F6
:1022800012F50060006830F4FE6012F5006318601B
:1022900012F500600068C9B20B0113F4FE63184325
:1022A00012F5006318600020704710B5040014F5A3
:1022B0000060406830F0020014F5006148600320BF
:1022C00000F004F9002010BD10B5040014F5006002
:1022D000406850F0020014F500614860032000F0EF
:1022E000F5F8002010BD010000204A6910008A693D
:1022F00010407047010011F500629269100011F55D
:102300000062D2691040000C7047010011F50062B4
:102310009269100011F50062D269104080B27047D6
:102320000200C9B212EB411313F530639B68180029
:1023300012F500635B691840704730B4020012F573
:1023400000652D692C0012F500656D6B2B0033FACA
:1023500001F515F0010554EAC514C9B212EB411597
:1023600015F51065AD682540280030BC7047406900
:1023700010F001007047010011F510600068C00AFC
:10238000C00211F51062106011F50060806810F055
:102390000600042807D111F51060006850F0030012
:1023A00011F51062106011F50060406850F4807003
:1023B00011F5006250600020704710B40300002047
:1023C00013F53064206113F53060006950F400208B
:1023D00013F53064206113F53060006950F0180087
:1023E00013F53064206113F53060006950F0C0408F
:1023F00013F530642061C9B2012907D113F53060AB
:1024000042615FF0802013F530642060002010BC32
:10241000704701000022521C0E48824201D3032063
:1024200012E008690028F6D500200200086950F083
:1024300001000861521C0748824201D3032003E0D7
:102440000869C007F6D40020704700000001800032
:1024500000383C80410D03000000F81F80B5224881
:10246000006850F40070204908601F48006850F46C
:1024700080601D4908601C48006850F480701A494B
:102480000860032000F09CF8002000F004F800F041
:10249000D2F8002002BD10B5040000F00FFC4FF48C
:1024A0007A71B0FBF1F000F0ABF8002221005FF090
:1024B000FF3000F08BF8002010BD0C480068401C75
:1024C0000A490860704709480068704711B581B033
:1024D0000024FFF7F8FF0400FFF7F5FF001B019948
:1024E0008842F9D313BD0000003C0240040B0120D8
:1024F00010F00702454B1B6819004FF6FF03194007
:10250000434B53EA02231943404B196070473F483D
:102510000068C0F302207047012110F01F029140B3
:102520003C4A40B2430942F82310704710B440B20D
:10253000002808D50A01384B40B210F00F04E31808
:1025400003F8042C03E00A01344B40B2C25410BC1F
:10255000704770B4030013F00704D4F10706052E8A
:1025600001D3042001E0D4F10700261D072E01D27B
:10257000002500E0E51E012616FA00F0401E084086
:10258000A8400121A940491E1140084370BC704772
:1025900010B50400601EB0F1807F01D301200EE071
:1025A000601E1F4908600F215FF0FF30FFF7BEFF7C
:1025B00000201C49086007201B490860002010BD4E
:1025C00010B504002000FFF793FF10BDF8B504001C
:1025D0000D0016000027FFF79AFF070032002900C0
:1025E0003800FFF7B6FF0100200040B2FFF79EFF62
:1025F000F1BD10B50400200040B2FFF78DFF10BD03
:1026000010B504002000FFF7C3FF10BD0CED00E083
:102610000000FA0500E100E018ED00E000E400E051
:1026200014E000E018E000E010E000E080B500F009
:1026300001F801BD704780B50320FFF7C1FF0022FC
:1026400000215FF0FF30FFF7C1FF01BD70B504004E
:1026500000252078C0075AD5DFF88C06006810F0F6
:102660000C0004280BD0DFF88006006810F00C0086
:1026700008280ED1DFF874060068400209D5DFF89B
:1026800064060068800342D5606801283FD00120BD
:102690009DE10020DFF858160870FFF714FF0500D1
:1026A000DFF840060068800308D5FFF70CFF401BE9
:1026B00041F289318842F3D3032088E16068DFF872
:1026C000301608706068012810D1FFF7FCFE050085
:1026D000DFF810060068800319D4FFF7F4FE401BF2
:1026E00041F289318842F3D3032070E1FFF7EBFE1A
:1026F0000500DFF8F0050068800308D5FFF7E3FE6A
:10270000401B41F289318842F3D303205FE12078F6
:10271000800766D5DFF8D005006810F00C0F0BD0ED
:10272000DFF8C405006810F00C0008281FD1DFF89E
:10273000BC05006840021AD4DFF8A80500688007CD
:1027400004D5E068012801D0012040E1DFF89405BC
:1027500000685FF0F851B1FA81F130F0F8002269B9
:1027600012FA01F10843DFF87C15086039E0E068EF
:10277000002823D00120DFF87C150860FFF7A3FEB6
:102780000500DFF860050068800706D4FFF79BFEB0
:10279000401B6528F5D3032019E1DFF848050068E0
:1027A0005FF0F851B1FA81F130F0F800226912FAC5
:1027B00001F10843DFF82C15086012E00020DFF873
:1027C00034150860FFF77FFE0500DFF81805006884
:1027D000800706D5FFF777FE401B6528F5D3032059
:1027E000F5E02078000728D56069002812D0012084
:1027F000DFF804150860FFF766FE0500DFF8FC044B
:102800000068800719D4FFF75EFE401B6528F5D3EA
:102810000320DCE00020DFF8E0140860FFF753FE3F
:102820000500DFF8D8040068800706D5FFF74BFEE7
:10283000401B6528F5D30320C9E0207840075CD50C
:10284000DFF8BC04006850F08050DFF8B414086072
:10285000DFF8B004006850F48070DFF8A814086056
:10286000FFF731FE0500DFF89C040068C00506D4C0
:10287000FFF729FE401B6528F5D30320A7E00020C1
:10288000DFF884140870FFF71EFE0500DFF87804F7
:102890000068800708D5FFF716FE401B41F289311A
:1028A0008842F3D3032092E0A068DFF85C1408703C
:1028B000A068012810D1FFF706FE0500DFF84804E4
:1028C0000068800719D4FFF7FEFD401B41F28931F3
:1028D0008842F3D303207AE0FFF7F5FD0500DFF827
:1028E00028040068800708D5FFF7EDFD401B41F282
:1028F00089318842F3D3032069E0A069002865D0BC
:10290000DFF8E403006810F00C0008285CD0A06930
:10291000022846D10020DFF8F4130860FFF7D3FD4A
:102920000500DFF8C0030068800106D5FFF7CBFD86
:10293000401B6528F5D3032049E0DFF8D403B0FA43
:1029400080F14FF44040B0FA80F2F020B0FA80F00D
:10295000236A666A16FA01F11943A36A5B085B1ED3
:1029600013FA02F21143E2691143E26A12FA00F02B
:10297000084350F00050DFF8741308600120DFF8BE
:102980008C130860FFF79FFD0500DFF8580300680F
:1029900080011BD4FFF797FD401B6528F5D303206A
:1029A00015E00020DFF864130860FFF78CFD0500D8
:1029B000DFF830030068800108D5FFF784FD401B75
:1029C0006528F5D3032002E0012000E0002070BD5F
:1029D00070B504000D000026DFF83803006810F021
:1029E0000F00A8427CD2DFF82C030570DFF8240327
:1029F000006810F00F00A84201D0012004E1207807
:102A0000800709D5DFF8E002006830F0F000A16827
:102A10000843DFF8D41208602078C00740F1D9805D
:102A20006068012806D1DFF8BC020068800312D478
:102A30000120E9E06068022806D1DFF8A8020068FA
:102A4000800108D40120DFE0DFF8980200688007E9
:102A500001D40120D8E0DFF89002006880088000EF
:102A600061680843DFF880120860FFF72CFD06005C
:102A70006068012810D1DFF87002006810F00C00C7
:102A8000042800F0A680FFF71EFD801B41F289316B
:102A90008842F0D30320B7E06068022810D1DFF845
:102AA0004802006810F00C00082800F09280FFF740
:102AB0000AFD801B41F289318842F0D30320A3E054
:102AC000DFF82402006810F00C0F00F08280FFF79E
:102AD000FAFC801B41F289318842F1D3032093E054
:102AE0002078800709D5DFF80002006830F0F00098
:102AF000A1680843DFF8F01108602078C0075CD5B2
:102B00006068012806D1DFF8DC010068800312D478
:102B1000012079E06068022806D1DFF8C80100686A
:102B2000800108D401206FE0DFF8B8010068800759
:102B300001D4012068E0DFF8B0010068800880005F
:102B400061680843DFF8A0110860FFF7BCFC0600CD
:102B5000606801280FD1DFF89001006810F00C00C8
:102B600004282AD0FFF7AFFC801B41F2893188424C
:102B7000F1D3032048E0606802280FD1DFF8680134
:102B8000006810F00C00082817D0FFF79CFC801B91
:102B900041F289318842F1D3032035E0DFF8480162
:102BA000006810F00C0F08D0FFF78DFC801B41F27D
:102BB00089318842F2D3032026E0DFF858010570FE
:102BC000DFF85001006810F00F00A84201D001208A
:102BD0001AE02078400707D54348006830F4E050F9
:102BE000E1680843404908602078000708D53E485E
:102BF000006830F46040216950EAC1003A49086039
:102C00000020FFF748FC002070BD70B400210022B6
:102C100000230020344C246814F00C04002C04D051
:102C2000042C05D0082C06D044E03B4C200043E0A7
:102C30003A4C200040E02D4C246814F03F04210061
:102C40002A4C246814F480044FF40075B5FA85F515
:102C5000EC40002C0FD0254C2468304DB5FBF1F52D
:102C600047F6C07634402A4EB6FA86F6F44004FBA6
:102C700005F422000EE01D4C2468274DB5FBF1F54C
:102C800047F6C0763440224EB6FA86F6F44004FB8E
:102C900005F42200154C246814F440344FF44045E8
:102CA000B5FA85F5EC40641C64002300B2FBF3F434
:102CB000200001E0184C200070BC704780B5FFF781
:102CC000A4FF094909685FF07062B2FA82F2144BFE
:102CD00011F0F001D140C95CC840124908601148A8
:102CE000006802BD00380240083802400438024043
:102CF0000238024000004742800E474274380240CA
:102D00004038024000700040703802406000474286
:102D10000000FE03003C02400024F40040787D01E6
:102D2000C85D00081801002030B589B005000024F6
:102D3000002D01D1012084E0032085F879032800CB
:102D400000F004FD2868FEF729FD291D83B06846C0
:102D50002C2200F099FE0EBC2868FEF7E1FC002151
:102D60002868FEF722FD002004000F2C25D2012048
:102D70001C2101FB045181F831001C2000FB045090
:102D800080F830401C2000FB0450C48600201C2129
:102D900001FB045181F8330000201C2101FB045188
:102DA000886300201C2101FB0451C86300201C2102
:102DB00001FB04514864641CD7E7002004000F2C79
:102DC0002ED200201C2101FB045181F8D5011C20CA
:102DD00000FB045080F8D4411C2000FB0450C48642
:102DE00000201C2101FB045181F8D70100201C2187
:102DF00001FB0451C1F8DC0100201C2101FB04513E
:102E0000C1F8E00100201C2101FB0451C1F8E801D8
:102E10000020296811EB8401C1F80401641CCEE78D
:102E2000291D83B068462C2200F02EFE0EBC2868B7
:102E3000FEF7D6FC012085F879032868FFF744FAED
:102E4000002009B030BD10B5040094F878030128C3
:102E500001D102200CE0012084F878032068FFF7FC
:102E600024FA2068FEF793FC002084F87803002001
:102E700010BD2DE9F84F040025685FF0000B5FF0EE
:102E8000000A00265FF0000900275FF000082068B4
:102E9000FFF76DFA002840F051822068FFF723FA0F
:102EA000002800F04B822068FFF71DFA800702D54A
:102EB0000220216848612068FFF715FA00036ED5EB
:102EC000002081462068FFF715FA8246BAF1000F0C
:102ED00065D05FEACA705DD54946C9B22068FFF780
:102EE0001FFA0600F00742D515EB491010F53060C7
:102EF000012181602069012821D11C2000FB0940AB
:102F0000D0F8DC0115EB491111F53061096949036D
:102F1000490B401A1C2101FB0941C1F8EC011C209E
:102F200000FB0940D0F8E0011C2101FB0941D1F868
:102F3000DC1108181C2101FB0941C1F8E0014946D8
:102F4000C9B2200000F042FC206901280FD1B9F17C
:102F5000000F0CD11C2000FB0940D0F8E80100282C
:102F600005D114F55F7201212068FFF726FA3007BA
:102F700008D5200000F021FC15EB491010F5306059
:102F800008218160F00605D515EB491010F5306079
:102F90001021816019F101095FEA5A0A96E7206859
:102FA000FFF7A1F9400376D52068FFF7AEF9824616
:102FB00000208146BAF1000F6DD05FEACA7065D576
:102FC0004946C9B22068FFF7B8F90600F00737D5BF
:102FD000012010FA09F0070015F50060406BB843B6
:102FE00015F50061486315EB491010F510600121DB
:102FF0008160206901280CD11C2000FB0940C06BB6
:103000001C2101FB0941896B08181C2101FB0941A6
:10301000C8634946C9B2200000F0E8FB20690128D6
:103020000ED1B9F1000F0BD11C2000FB0940406C00
:10303000002805D114F55F7201212068FFF7BDF962
:10304000300705D515EB491010F510600821816097
:10305000F00605D515EB491010F5106010218160C0
:10306000700605D515EB491010F510604021816000
:10307000B00705D515EB491010F5106002218160ED
:10308000300603D54946200000F0FFFA19F1010986
:103090005FEA5A0A8EE72068FFF725F900280ED567
:1030A00015F5006040684008400015F50061486073
:1030B000200000F0D4FB5FF00040216848612068E8
:1030C000FFF711F900050BD515F500608068C00702
:1030D00002D5200000F0BCFB4FF40060216848617D
:1030E0002068FFF700F9C00465D515F50060406859
:1030F0004008400015F50061486000212068FEF797
:1031000047FC00208346606883450ED215EB4B10C8
:1031100010F51060FF21816015EB4B1010F5306049
:10312000FF2181601BF1010BEDE75FF0FF3015F52A
:103130000061886115F50060C06950F0011015F557
:103140000061C861A06A002812D015F50060D0F8AF
:10315000840050F00B0015F50061C1F8840015F5EE
:103160000060406C50F00B0015F5006148640FE002
:1031700015F50060406950F00B0015F500614861DD
:1031800015F50060006950F00B0015F5006108614D
:1031900015F50060006830F4FE6015F50061086008
:1031A00014F55F722169C9B22068FFF706F94FF480
:1031B0008050216848612068FFF795F880042AD57F
:1031C0002068FFF7D8F82068C06830F47050216894
:1031D000C8602068FEF709FC00280BD10020E060E1
:1031E0004FF4007060612068C06850F4105021688E
:1031F000C86009E00320E060402060612068C0688A
:1032000050F4A0502168C860200000F005FB4FF486
:103210000050216848612068FFF765F8C00646D570
:103220002068806930F0100021688861286A804633
:1032300018F00F001C2101FB004010F5EA7000900F
:10324000C8F3434002281BD147F6F07018EA000F7C
:1032500027D0C8F30A1292B20098C1682800FEF77E
:103260005EFF0098C068C8F30A1108180099C8608A
:1032700000988069C8F30A1108180099886110E065
:10328000C8F3434006280CD1082214F55F712800CA
:10329000FEF745FF00988069C8F30A1108180099E5
:1032A00088612068806950F010002168886120687A
:1032B000FFF719F8000705D5200000F0A6FA08204E
:1032C000216848612068FFF70EF8C00208D549461A
:1032D000C9B2200000F0D4FA5FF480102168486180
:1032E0002068FFF700F8800208D54946C9B22000DF
:1032F00000F0BCFA5FF40010216848612068FEF716
:10330000F2FF400006D5200000F0C4FA5FF08040D4
:10331000216848612068FEF7E6FF40070ED5206867
:10332000406880465FEA487002D5200000F0B9FA94
:103330002068406858EA000021684860BDE8F18FC5
:1033400038B504000D0094F87803012801D102205B
:103350000BE0012084F878032900C9B22068FEF749
:103360008EFF002084F87803002032BD2DE9F84359
:1033700004000D0016001F005FF00008EDB22806E3
:1033800008D5EDB215F07F001C2101FB0040303064
:10339000814608E0EDB215F07F001C2101FB0040E2
:1033A00010F5EA70814615F07F0089F80000EDB253
:1033B000E80989F80100B6B2C9F8086089F8037015
:1033C00099F80100002803D099F80000A9F8060038
:1033D000FFB2022F02D1002089F8040094F878038C
:1033E000012801D102200BE0012084F8780349462E
:1033F0002068FEF721FB002084F878034046C0B225
:10340000BDE8F28370B504000D00EDB2280608D5C2
:10341000EDB215F07F001C2101FB004030300600AA
:1034200008E0EDB215F07F001C2101FB004010F513
:10343000EA70060015F07F003070EDB2E809707098
:1034400094F87803012801D102200AE0012084F8D1
:10345000780331002068FEF751FB002084F87803E0
:10346000002070BD2DE9F04104000D0016001F0082
:10347000EDB215F07F001C2101FB004010F5EA7051
:103480008046C8F80C60C8F814700020C8F818000E
:10349000002088F8010015F07F0088F800002069FE
:1034A000012801D1C8F8106094F87803012801D1EF
:1034B000022016E0012084F878037F20054206D11F
:1034C0002269D2B241462068FEF710FD05E022696C
:1034D000D2B241462068FEF766FB002084F87803EC
:1034E0000020BDE8F081C9B211F07F011C2202FB6F
:1034F0000100D0F8EC0180B270472DE9F0410400E2
:103500000D0016001F00EDB215F07F001C2101FB1D
:10351000004030308046C8F80C60C8F814700020B5
:10352000C8F81800012088F8010015F07F0088F81D
:1035300000002069012801D1C8F8106094F87803D0
:10354000012801D1022016E0012084F878037F20B1
:10355000054206D12269D2B241462068FEF7C6FC78
:1035600005E02269D2B241462068FEF71CFB00202C
:1035700084F878030020BDE8F08170B504000D00E8
:10358000EDB2280608D5EDB215F07F001C2101FB35
:1035900000403030060006E0EDB21C2000FB054084
:1035A00010F5EA7006000120B07015F07F00307051
:1035B000EDB2E809707094F87803012801D1022077
:1035C00014E0012084F8780331002068FEF7BDFD87
:1035D0007F20054206D114F55F722169C9B22068C7
:1035E000FEF7EBFE002084F87803002070BD70B574
:1035F00004000D00EDB2280608D5EDB215F07F00ED
:103600001C2101FB00403030060006E0EDB21C201A
:1036100000FB054010F5EA7006000020B07015F0C0
:103620007F003070EDB2E809707094F878030128DB
:1036300001D102200AE0012084F8780331002068DB
:10364000FEF7D2FD002084F87803002070BD38B565
:1036500004000D0094F87803012801D1022013E042
:10366000012084F87803EDB2280606D5EDB215F0F6
:103670007F012068FEF78CF902E02068FEF79AF9D6
:10368000002084F87803002032BD2DE9F04782B095
:1036900004000D0026685FF000085FF0000A1C209F
:1036A00000FB0540303007007869B969401A804650
:1036B000B868404501D2B868804618F1030004217B
:1036C00090FBF1F0814616EB451010F51060806913
:1036D00080B2814529D2B8697969884225D2786952
:1036E000002822D07869B969401A8046B8684045F8
:1036F00001D2B868804618F10300042190FBF1F074
:1037000081462069C0B2009043469BB22A00D2B2E3
:10371000F9683000FEF7E0FCF86818EB0000F8608C
:10372000B86918EB0000B861CDE7B8F1010F0ADA0B
:103730000120A840824616F50060406B30EA0A007E
:1037400016F5006148630020BDE8F68710B586B025
:1037500004002068B0F1A04F2DD17648006850F0E9
:103760008000744908607448006850F480407249D1
:1037700008604FF4C8500090022001900020029091
:10378000022003900A20049000A96C4800F0B8F9C8
:103790004FF400700090002001900020029000A9DA
:1037A000664800F0ADF9002205214320FEF70EFF28
:1037B0004320FEF71EFF06B010BD10B5040014F53F
:1037C0005F71D4F8AC0300F004FB10BD38B5040001
:1037D0000D00EDB21C2000FB0540D0F8E0212900CF
:1037E000C9B2D4F8AC0300F029FB31BD38B50400F0
:1037F0000D00EDB21C2000FB0540C26B2900C9B2D0
:10380000D4F8AC0300F061FB31BD10B50400D4F86E
:10381000AC0300F0F7FB10BD38B504000125E068EB
:10382000002802D0022803D005E00020050004E0B3
:103830000120050001E0012005002900C9B2D4F8EB
:10384000AC0300F0CAFBD4F8AC0300F0A3FB31BD1D
:1038500010B50400D4F8AC0300F0C3FB10BD10B5E4
:103860000400D4F8AC0300F0C6FB10BD38B504006A
:103870000D002900C9B2D4F8AC0300F0D8FB31BD6B
:1038800038B504000D002900C9B2D4F8AC0300F02B
:10389000CBFB31BD10B50400D4F8AC0300F0CAFB7B
:1038A00010BD10B50400D4F8AC0300F0C6FB10BD89
:1038B00010B504002078002838D12148C0F8AC4366
:1038C0001F48C4F820025FF0A0401D49086007208F
:1038D0001B49486002201A49C86000201849086145
:1038E00000201749486102201549886101201449C8
:1038F000C861002012490862012011494862002075
:103900000F49886201200E49C8620D48FFF70CFA82
:1039100080210B4800F0D0FB40220021084800F035
:103920009AFB80220121064800F095FB002010BD83
:1039300000000000343802404438024000000240D9
:103940002401012010B50400D4F82002FFF77BFA0F
:10395000002010BDF8B504000D0016001F00330054
:10396000DBB23A0092B22900C9B2D4F82002FFF7C4
:10397000FDFC0020F2BD38B504000D002900C9B2DD
:10398000D4F82002FFF73EFD002032BD38B5040018
:103990000D002900C9B2D4F82002FFF758FE00201C
:1039A00032BD38B504000D002900C9B2D4F8200298
:1039B000FFF7E3FD002032BD38B504000D002900FB
:1039C000C9B2D4F82002FFF712FE002032BD020077
:1039D000D2F82002C9B20B0608D5C9B211F07F0196
:1039E0001C2303FB010090F8320007E0C9B211F07C
:1039F0007F011C2303FB010090F8D601704738B506
:103A000004000D002900C9B2D4F82002FFF798FC89
:103A1000002032BDF8B504000D0016001F00BFB233
:103A20003B0032002900C9B2D4F82002FFF765FD3F
:103A30000020F2BDF8B504000D0016001F00BFB253
:103A40003B0032002900C9B2D4F82002FFF70AFD7A
:103A50000020F2BD38B504000D002900C9B2D4F829
:103A60002002FFF740FD32BD62B38B0708D0521E23
:103A700011F8013B00F8013B00F024808B07F6D1E0
:103A8000830740F0208000BF103A07D330B4B1E87C
:103A90003810103AA0E83810F9D230BC530724BFD0
:103AA000B1E80810A0E8081044BF51F8043B40F802
:103AB000043BD20724BF31F8022B20F8022B44BF6D
:103AC0000B7803707047083A07D3B1E80810083A3A
:103AD00040F8043B40F804CBF7D25307E4E750F832
:103AE000041B61B150F8042BD30744BFA9F10103B3
:103AF0009A180023091F42F8043BFAD1EFE77047F8
:103B0000F0B400230024002500263200102A80F0A3
:103B1000E8800126964033000E681E4034009C4227
:103B200040F0DD804E68022E02D04E68122E16D173
:103B3000D60810EB8606366A35000F2612F0070706
:103B4000FFB2BF00BE40B5430E6912F00707FFB2D7
:103B5000BF00BE403543D60810EB860635620668C6
:103B6000350003261700FFB27F00BE40B5430E7933
:103B700016F003061700FFB27F00BE403543056014
:103B80004E68012E08D04E68022E05D04E68112EC8
:103B900002D04E68122E19D1866835000326170010
:103BA000FFB27F00BE40B543CE681700FFB27F0072
:103BB000BE40354385604668350001269640B543D2
:103BC0004E68C6F30016964035434560C66835001A
:103BD00003261700FFB27F00BE40B5438E68170072
:103BE000FFB27F00BE403543C5604E68F60076D513
:103BF0003D4E366856F480463B4F3E603B4E97083C
:103C000056F8276035000F2612F00307FFB2BF00F9
:103C1000BE40B543364EB04201D100262DE0354EB0
:103C2000B04201D1012628E0334EB04201D1022634
:103C300023E0324EB04201D103261EE0304EB042A6
:103C400001D1042619E02F4EB04201D1052614E01F
:103C50002D4EB04201D106260FE02C4EB04201D1CC
:103C600007260AE02A4EB04201D1082605E0294E77
:103C7000B04201D1092600E00A2612F00307FFB284
:103C8000BF00BE403543194E970846F82750224ED4
:103C900036683500A5434E68F60300D525431E4E11
:103CA00035601E4E36683500A5434E68B60300D514
:103CB00025431A4E35601A4E36683500A5434E68C6
:103CC000F60200D52543164E3560164E366835008F
:103CD000A5434E68B60200D52543124E3560521CEE
:103CE00014E7F0BC70470000443802400838014037
:103CF000000002400004024000080240000C0240A4
:103D0000001002400014024000180240001C024053
:103D10000020024000240240003C0140043C0140DD
:103D2000083C01400C3C014070B504000D00160039
:103D3000002C01D1022012E0D4F81402002802D095
:103D40000020C4F81402002D01D0C4F81052012044
:103D500084F8FC0126702000FFF7AAFD002070BD4A
:103D600002000020002904D0C2F814120023180019
:103D700001E002231800C0B2704710B50400200013
:103D8000FFF7E0FD002010BD01000020704770B576
:103D900004000D000226D4F8140200280AD02900DD
:103DA000C9B22000D4F8142212689047002801D12B
:103DB000002006003000C0B270BD38B504000D0010
:103DC0002900C9B22000D4F814225268904700207C
:103DD00032BD38B504000D00290014F5027000F062
:103DE00045FC0120C4F8F401B4F80E02C4F8F8014F
:103DF00094F8080210F01F00C0B2002803D0022877
:103E00000DD006D311E014F50271200000F05AF92C
:103E100012E014F50271200000F092F90CE014F5A4
:103E20000271200000F0B2F906E094F8080210F0E8
:103E300080012000FFF7B5FD002032BDF8B5040079
:103E40000D001600EDB2002D2DD114F58270070083
:103E5000D4F8F401032836D1F868B968884210D242
:103E6000B868F968401AB860B868F968884201D241
:103E7000BA6800E0FA6892B23100200000F064FCF9
:103E800021E0D4F814020069002808D094F8FC015D
:103E9000032804D12000D4F81412096988472000AF
:103EA00000F05FFC0FE0D4F81402806900280AD00B
:103EB00094F8FC01032806D12900C9B22000D4F8E7
:103EC0001422926990470020F2BDF8B504000D005D
:103ED0001600EDB2002D4BD114F114000700D4F8F8
:103EE000F401022839D1F868B96888420AD2B86862
:103EF000F968401AB860BA6892B23100200000F048
:103F000016FC2AE07868F968B0FBF1F201FB1200B8
:103F1000002811D17868F96888420DD37868D4F800
:103F2000F811884208D200220021200000F0FFFB97
:103F30000020C4F8F80110E0D4F81402C06800288A
:103F400008D094F8FC01032804D12000D4F81412FE
:103F5000C9688847200000F011FC94F8000201288D
:103F600016D12000FFF710FF002084F800020FE0B8
:103F7000D4F81402406900280AD094F8FC01032800
:103F800006D12900C9B22000D4F814225269904702
:103F90000020F2BD10B504004023002200212000C3
:103FA000FFF7D8FC4020C4F81001402300228021F4
:103FB0002000FFF7CFFC40202062012084F8FC01A4
:103FC000D4F81802002806D06168C9B22000D4F8DD
:103FD000142252689047002010BD02001174002086
:103FE0007047010091F8FC0181F8FD01042081F87F
:103FF000FC0100207047010091F8FD0181F8FC01EF
:104000000020704710B5040094F8FC01032809D182
:10401000D4F81402C069002804D02000D4F8141287
:10402000C9698847002010BD0200002070470200C7
:104030000020704701000020704710B504000120E7
:1040400084F8FC016168C9B22000D4F814225268D7
:104050009047002010BD70B40300002400251868AC
:10406000406A0500C9B2002905D192B255EA024062
:104070001E68B0621DE01868806A15EB10450020CC
:104080000400E4B2C9B2481E844209DA1868E4B2F6
:1040900010EB8400D0F8040115EB1045641CF0E728
:1040A0001868C9B210EB810092B255EA0246C0F816
:1040B0000061002070BC7047020089B21068416244
:1040C0000020704770B504000D00002668780028B5
:1040D00020D0012828D0032821D005280BD006287D
:1040E00004D0082811D009280AD022E02900200095
:1040F00000F0F7F821E02900200000F0A4F91CE00E
:104100002900200000F0CFF917E02900200000F07E
:1041100039FA12E02900200000F05AFA0DE02900D7
:10412000200000F073FA08E02900200000F081FA76
:1041300003E02900200000F0ADFA3000C0B270BDED
:1041400070B504000D00002694F8FC01032817D177
:10415000287902280FDA29002000D4F81422926866
:104160009047E88800280AD1F6B2002E07D1200037
:1041700000F0F7FA03E02900200000F08BFA03E0DA
:104180002900200000F086FA002070BD2DE9F041E2
:1041900004000D000027A88806006878002861D078
:1041A000012832D0032840F0988094F8FC010228BE
:1041B00002D003280CD023E0F6B2002E07D0F6B2CE
:1041C000802E04D03100C9B22000FFF7EAFB1BE0CB
:1041D000688800280AD1F6B2002E07D0F6B2802EE9
:1041E00004D03100C9B22000FFF7DBFB290020001A
:1041F000D4F8142292689047200000F0B2FA03E04D
:104200002900200000F046FA67E094F8FC0102283B
:1042100002D003280CD020E0F6B2002E07D0F6B270
:10422000802E04D03100C9B22000FFF7BAFB18E09D
:104230006888002810D17F2006420AD03100C9B218
:104240002000FFF7B9FB29002000D4F8142292685F
:104250009047200000F085FA03E02900200000F0DC
:1042600019FA3AE094F8FC01022802D0032809D098
:104270002EE07F20064204D03100C9B22000FFF7B3
:1042800090FB29E0F6B2300607D5F6B216F07F00B3
:1042900014EB001010F1140806E0F6B216F07F00DF
:1042A00014EB001010F582783100C9B22000FFF73E
:1042B0008EFB002803D00120C8F8000002E0002097
:1042C000C8F8000002224146200000F01CFA03E07A
:1042D0002900200000F0DEF9FFE73800C0B2BDE899
:1042E000F08170B582B004000D00688880B2000AC9
:1042F000C0B2012808D002280ED0032821D00628F9
:1043000061D007286ED07EE000A9207CD4F810226E
:104310001268904706007BE0207C002808D100A8A6
:10432000D4F81412896A884706000220707007E0EA
:1043300000A8D4F81412C96A8847060002207070D9
:1043400066E0A878002808D0022816D00DD30428EB
:1043500023D01AD3052828D02FE000A9207CD4F838
:1043600010225268904706002CE000A9207CD4F867
:10437000102292689047060024E000A9207CD4F81F
:104380001022D268904706001CE000A9207CD4F8D7
:10439000102212699047060014E000A9207CD4F88E
:1043A00010225269904706000CE000A9207CD4F846
:1043B000102292699047060004E02900200000F0D6
:1043C00069F93FE024E0207C002806D100A8D4F859
:1043D0001412496B884706001AE02900200000F0FB
:1043E00059F92FE0207C002808D100A8D4F8141235
:1043F000096B884706000720707009E0290020003B
:1044000000F048F91EE02900200000F043F919E00F
:10441000BDF80000002815D0E888002812D0BDF8AB
:104420000000E988884204D2BDF80000ADF8000021
:1044300002E0E888ADF80000BDF80020310020005F
:1044400000F061F973BD70B504000D00A888002864
:1044500024D1E888002821D1A87810F07F00060038
:1044600094F8FC01032804D12900200000F012F97F
:1044700018E084F8FE613100C9B22000FFF7BFFAEE
:10448000200000F06EF9F6B2002E03D0022084F86E
:10449000FC0107E0012084F8FC0103E02900200072
:1044A00000F0F8F870BD38B504000D006888344994
:1044B000087033480078022804DB2900200000F04F
:1044C000E9F85CE094F8FC01022802D003281ED031
:1044D00051E02B480078002815D02948007860600A
:1044E000032084F8FC01264801782000FFF74FFCE8
:1044F000022804D12900200000F0CCF83FE0200081
:1045000000F02FF902E0200000F02BF937E01C4802
:10451000007800280ED1022084F8FC0118480078A9
:104520006060174801782000FFF747FC200000F08A
:1045300018F91FE0124800786168884217D0616856
:10454000C9B22000FFF739FC0D48007860600C48C4
:1045500001782000FFF71BFC022804D1290020006D
:1045600000F098F80BE0200000F0FBF802E02000DB
:1045700000F0F7F803E02900200000F08BF831BDCF
:104580000C0B012038B504000D00E888012804D088
:104590002900200000F07EF819E094F8FC010228C0
:1045A00002D0032809D00EE00020A060012214F1FF
:1045B0000801200000F0A7F809E00122211D2000D9
:1045C00000F0A1F803E02900200000F063F831BDFD
:1045D00038B504000D0094F8FC01801E012810D8A5
:1045E0000120E060D4F80402002803D0E06850F015
:1045F0000200E060022214F10C01200000F083F8B8
:1046000003E02900200000F045F831BD38B5040072
:104610000D00688801280BD10120C4F8040229008C
:104620002000D4F8142292689047200000F099F8F6
:1046300031BD38B504000D0094F8FC01801E01283E
:104640000FD8688801280BD10020C4F80402290083
:104650002000D4F8142292689047200000F081F8DE
:1046600003E02900200000F015F831BD0A7802703F
:104670004A7842708A78CB781B029A1842800A796D
:104680004B791B029A1882808A79CB791B029A187F
:10469000C280704738B504000D0080212000FFF76C
:1046A00080F900212000FFF77CF931BDF8B5040046
:1046B0000D0016000027002C1AD0200000F019F879
:1046C0004000801C30803088FFB278557F1C03206A
:1046D000FFB278557F1C2078002809D02078FFB2DF
:1046E0007855641C7F1C0020FFB278557F1CF2E7D0
:1046F000F1BD010000200A78002A02D0401C491CAC
:10470000F9E7C0B2704770B504000D001600022032
:10471000C4F8F401B6B2A661B6B2E66133009BB24A
:104720002A0000212000FFF775F9002070BD70B548
:1047300004000D00160033009BB22A000021200067
:10474000FFF768F9002070BD70B504000D00160079
:1047500033009BB22A0000212000FFF76BF90020F4
:1047600070BD10B504000420C4F8F4010023002239
:1047700000212000FFF74EF9002010BD10B5040005
:104780000520C4F8F4010023002200212000FFF7D7
:1047900051F9002010BD000070B504000D00160096
:1047A0003078002816D003281BD0122820D01A28D1
:1047B00033D01B2823D01E2828D023283BD02528DF
:1047C00040D0282845D02A284AD02F284FD05A2810
:1047D0002AD053E032002900C9B2200000F058F876
:1047E00055E032002900C9B2200000F06DF94EE01A
:1047F00032002900C9B2200000F078F847E032000A
:104800002900C9B2200000F0D6F940E032002900AA
:10481000C9B2200000F0CFF939E032002900C9B256
:10482000200000F023F932E032002900C9B2200054
:1048300000F030F92BE032002900C9B2200000F06E
:10484000C8F824E032002900C9B2200000F07AF84C
:104850001DE032002900C9B2200000F0B5F916E0D1
:1048600032002900C9B2200000F030FA0FE0320017
:104870002900C9B2200000F0D0FA08E02023052268
:104880002900C9B2200000F06FF95FF0FF3070BD61
:10489000F8B504000D001600D4F8187242F21400A6
:1048A000C05900280AD02023052242F21900C15D18
:1048B000200000F059F95FF0FF3016E02800C0B288
:1048C000D4F81C128968884700280BD03A230222AA
:1048D0002900C9B2200000F047F9052038725FF0C6
:1048E000FF3002E0002078810020F2BDF0B4030028
:1048F000D3F818625078C00704D570480400072028
:10490000050011E0D3F81C02C069C9B2242707FBD7
:10491000010004002079401D05001079ADB280B27D
:10492000854201D3107905007581ADB2002D06D006
:104930006D1EADB2285DADB2AF193873F5E700203A
:10494000F0BC7047F8B504000D001600D4F81872DA
:1049500007F500525E3207F5005160312800C0B201
:10496000D4F81C325B689847002809D03A23022209
:104970002900C9B2200000F0F7F85FF0FF3027E00F
:1049800042F26000C059401E000E387342F26000CF
:10499000C059401E000C787342F26000C059401E9E
:1049A000000AB87342F26000C059401EF87300203C
:1049B00038740020787442F25E00C05B80B2000A56
:1049C000B87442F25E00C05BF87408207881002061
:1049D000F2BD2DE9FC4104000D001600D4F8187258
:1049E000002080461FFA88F8B8F10C0F08DA002082
:1049F0001FFA88F818EB0701087318F10108F1E7AE
:104A000001AA00A92800C0B2D4F81C325B689847FC
:104A1000002809D03A2302222900C9B2200000F060
:104A2000A3F85FF0FF301FE00820F8730098401EE5
:104A3000000E38740098401E000C78740098401ED8
:104A4000000AB8740098401EF874022038750020DF
:104A50007875BDF8040080B2000AB875BDF804008E
:104A6000F8750C2078810020BDE8F68170B4030051
:104A7000D3F8184208256581ADB2002D07D06D1E10
:104A80000F48ADB2285CADB22E193073F4E70020A8
:104A900070BC704770B403000824D3F818526C81BE
:104AA000A4B2002C07D0641E0648A4B2205CA4B2B5
:104AB00066193073F4E7002070BC7047205E000870
:104AC000285E0008305E000870B40300D3F8184276
:104AD00000200500EDB2122D05DA0020EDB22E19EE
:104AE00030736D1CF6E7702020730C20E07442F2E6
:104AF0005C00005D42F25D06365DB0422AD042F2B3
:104B00005C00005D14EBC00042F23C06305CA07318
:104B100042F25C00005D14EBC00042F24106305CE2
:104B2000207642F25C00005D14EBC00010F50150ED
:104B30000078607642F25C00005D401C42F25C0648
:104B4000305542F25C00005D042803D1002042F29F
:104B50005C063055122060811079132801DA107933
:104B60006081002070BC704770B4D0F8184242F2E7
:104B70005D052D5D14EBC50542F23C06725542F20F
:104B80005D052D5D14EBC50515F50155DBB21E0263
:104B90002E6042F25D052D5D6D1C42F25D063555BD
:104BA00042F25D052D5D042D03D1002542F25D0624
:104BB000355570BC704710B40300D3F8184200207C
:104BC0006081002010BC7047F8B504000D0016008D
:104BD000D4F81872387A00286FD142F21800C05DFC
:104BE00000060AD42023052242F21900C15D2000EC
:104BF000FFF7BAFF5FF0FF3067E02800C0B2D4F8DB
:104C00001C1289688847002809D03A23022229000B
:104C1000C9B22000FFF7A8FF5FF0FF3055E0B07881
:104C2000F178090451EA0060317950EA0120717984
:104C3000084342F26401C851F079317A51EA002008
:104C400042F26801C85142F26800C3599BB242F275
:104C50006400C2592900C9B2200000F006F90028FA
:104C600002D55FF0FF3030E00220387242F264007B
:104C7000C05942F25E01C95B484342F26401C85127
:104C800042F26800C05942F25E01C95B484342F2F9
:104C90006801C85142F21400C05942F26801C95972
:104CA00088420AD02023052242F21900C15D20006B
:104CB000FFF75AFF5FF0FF3007E04FF400507881B4
:104CC0002900C9B2200000F0EDF8F2BDF8B50400EB
:104CD0000D001600D4F81872387A002840F097803A
:104CE00042F21800C05D00060AD52023052242F2D8
:104CF0001900C15D2000FFF737FF5FF0FF308BE048
:104D00002800C0B2D4F81C1289688847002809D04E
:104D10003A2302222900C9B22000FFF725FF5FF0E5
:104D2000FF3079E02800C0B2D4F81C12C968884767
:104D3000002809D0272302222900C9B22000FFF74A
:104D400013FF5FF0FF3067E0B078F178090451EAB3
:104D50000060317950EA01207179084342F2640120
:104D6000C851F079317A51EA002042F26801C85105
:104D700042F26800C3599BB242F26400C259290052
:104D8000C9B2200000F071F8002802D55FF0FF30B2
:104D900042E042F26400C05942F25E01C95B4843FE
:104DA00042F26401C85142F26800C05942F25E0109
:104DB000C95B484342F26801C85142F21400C0592D
:104DC00042F26801C95988420AD02023052242F2E2
:104DD0001900C15D2000FFF7C7FE5FF0FF301BE048
:104DE0000120387242F26800C059B0F5005F03D26A
:104DF00042F26800C35901E04FF400539BB217F12F
:104E00000C0201212000FEF715FE002004E029001D
:104E1000C9B2200000F0A0F8F2BDF8B504000D0002
:104E20001600D4F818727078800709D5242305225B
:104E30002900C9B22000FFF797FE5FF0FF3013E0B2
:104E400042F26800C3599BB242F26400C259290081
:104E5000C9B2200000F009F8002802D55FF0FF3049
:104E600002E0002078810020F2BD2DE9F04104002D
:104E70000D0016001F00D4F8188242F2600050F8AE
:104E8000080016FA87F1884209D221230522290059
:104E9000C9B22000FFF768FE5FF0FF3000E000209D
:104EA000BDE8F081F8B504000D00D4F8186242F2B4
:104EB00068008059B0F5005F03D242F2680087595C
:104EC00001E04FF4005742F25E00805BB7FBF0F365
:104ED0009BB242F26400805942F25E01895BB0FBF2
:104EE000F1F216F10C012800C0B2D4F81CC2DCF8B3
:104EF00010C0E047002809D5112304222900C9B2B7
:104F00002000FFF731FE5FF0FF3024E03B009BB252
:104F100016F10C0281212000FEF77CFD42F26400B4
:104F20008059381842F26401885142F26800805971
:104F3000C01B42F26801885142F234008059C01B04
:104F400042F23401885142F268008059002801D1B0
:104F5000032030720020F2BDF8B504000D00D4F833
:104F6000186242F268008059B0F5005F03D242F245
:104F70006800875901E04FF4005742F25E00805B01
:104F8000B7FBF0F39BB242F26400805942F25E013B
:104F9000895BB0FBF1F216F10C012800C0B2D4F825
:104FA0001CC2DCF814C0E047002809D50323042202
:104FB0002900C9B22000FFF7D7FD5FF0FF3032E0D3
:104FC00042F264008059381842F26401885142F27A
:104FD00068008059C01B42F26801885142F23400D7
:104FE0008059C01B42F23401885142F26800805956
:104FF000002804D10021200000F025F912E042F23F
:1050000068008059B0F5005F03D242F2680083590E
:1050100001E04FF400539BB216F10C020121200075
:10502000FEF708FD0020F2BD38B50400D4F8185290
:105030000020287200206872002042F25D0148556D
:10504000002042F25C0148550020D4F81C12096887
:10505000884701212000FEF799FC81212000FEF7FE
:1050600095FC1F2305F500520C3201212000FEF7AC
:10507000E1FC31BD38B50400D4F818520020287284
:10508000012068721F2305F500520C320121200017
:10509000FEF7D0FC31BDD0F8181200220A7270471A
:1050A00070B504000D00D4F81862307A801E03D069
:1050B000401E012810D914E006F500521B3242F2BE
:1050C0001900815D2000FFF767FB002803D501214F
:1050D000200000F0B8F804E00021200000F0B3F850
:1050E000FFE770BD70B504000D00D4F81862307A87
:1050F000002802D0012804D013E0200000F012F8AC
:105100000FE006F500521B3242F21900815D2000CB
:10511000FFF742FB002803D50121200000F093F89F
:10512000FFE770BD38B50400D4F8185242F2100001
:10513000405942F23001485142F21400405942F2C3
:105140003401485101212000FEF784FC1F2814D1AE
:1051500042F20C0040594B4988420ED142F21900EC
:10516000405D022809DA42F21A00405D002804D0AE
:1051700042F21A00405D11280DDB2023052242F285
:105180001900415D2000FFF7EFFC0220687220004B
:1051900000F07CF830E005F500521B3242F21900B5
:1051A000415D2000FFF7F8FA00280BD5287A052882
:1051B00004D10121200000F046F81DE0200000F09D
:1051C00065F819E0287A022816D0287A012813D029
:1051D000287A032810D06889002806D06A8915F13A
:1051E0000C01200000F009F806E06889002803D1CE
:1051F0000021200000F027F831BDF8B504000D00B3
:105200001700D4F8186242F214008059BFB2B842B5
:1052100003D242F214008759FFE742F2340080596A
:10522000BFB2C01B42F234018851002042F2380163
:105230008855042030723B009BB22A008121200057
:10524000FEF7E8FBF1BD70B504000D00D4F818625C
:105250000D4842F22C01885142F238008555002059
:1052600030720D2306F500522C3281212000FEF70A
:10527000D1FB1F2306F500520C3201212000FEF75E
:10528000D9FB70BD555342435553425338B50400C2
:10529000D4F8185242F21800405D00280BD142F2B7
:1052A00014004059002806D0687A002803D1012153
:1052B0002000FEF776FB81212000FEF772FB687A62
:1052C000022807D11F2305F500520C3201212000CE
:1052D000FEF7B0FB31BD70B504000D00D4F81862C4
:1052E000707A022806D181212000FEF75AFB0020A7
:1052F000707209E0EDB2280606D5707A012803D055
:1053000001212000FFF79FFF70BD000070B5040071
:105310000D000026207C00280ED14FF400730222DD
:1053200001212000FEF716FB4FF4007302228121B9
:105330002000FEF70FFB0BE040230222012120009A
:10534000FEF708FB4023022281212000FEF702FB2A
:1053500042F26C00FBF7C2FDC4F81802D4F8180240
:10536000002802D10120060004E02000FFF75CFEC7
:10537000002006003000C0B270BD38B504000D003A
:1053800001212000FEF7F7FA81212000FEF7F3FA51
:105390002000FFF780FED4F81802002806D0D4F8C9
:1053A0001802FBF7F6FE0020C4F81802002032BDF8
:1053B00070B504000D00D4F81862287810F0600071
:1053C000C0B200283CD0202840F082806878FE28B7
:1053D00002D0FF281AD02CE06888002810D1E88875
:1053E00001280DD1287800060AD5D4F81C0280695E
:1053F00080473060012231002000FFF784F91EE071
:1054000029002000FFF746F9022062E068880028A2
:1054100009D1E888002806D12878000603D42000A6
:10542000FFF728FE0BE029002000FFF733F90220E8
:105430004FE029002000FFF72DF9022049E047E066
:10544000687801280DD00A2802D00B2806D03EE04B
:105450000122311D2000FFF756F938E0A87870606E
:1054600035E0A988C9B22000FEF790FAA988C9B230
:105470002000FEF780FA2879C0B2000611D5207C02
:10548000002807D14FF40073022281212000FEF78B
:1054900061FA17E04023022281212000FEF75AFA28
:1054A00010E0207C002807D14FF400730222012174
:1054B0002000FEF74FFA05E04023022201212000E0
:1054C000FEF748FAA988C9B22000FFF704FFFFE7FA
:1054D000002070BD38B504000D002900C9B22000BD
:1054E000FFF7DEFD002032BD38B504000D002900B5
:1054F000C9B22000FFF7F6FD002032BD01002020D8
:10550000088008487047010020200880064870473E
:105510000100202008800548704701000A2008800B
:10552000034870475C0000207C0000209C000020A5
:105530000C0100200200002901D0C2F81C1200203A
:10554000704700002DE9F04106000F0014001D0017
:105550005FF00108DFF8FC01007E012801D1022084
:105560003CE00120DFF8EC1108764CF2503000F0FE
:1055700045F880465FFA88F8B8F1000F28D1002E70
:1055800005D12100C9B2380000F098F813E0012ECF
:1055900005D1210089B2380000F07CF80BE0022E22
:1055A00004D12100380000F061F804E022002B0053
:1055B000380000F044F84CF2503000F01FF88046FC
:1055C000DFF89401006840084000DFF88C110860A3
:1055D0000020DFF8801108764046C0B2BDE8F081B7
:1055E0005D480068002807D55D485E4908605E4850
:1055F0005C490860002000E00120704738B50400D5
:105600000025FCF760FF050054480068C0030BD577
:1056100014F1010FF8D0002C04D0FCF754FF401B0C
:105620008442F1D2032009E04C48006810F4F97F6D
:1056300003D000F055F8012000E0002032BD10B486
:105640004549096831F44071434C21604249096879
:1056500051F44071404C21603F49096851F001010B
:105660003D4C2160C0E9002310BC70473A4A1268E3
:1056700032F44072384B1A60374A126852F40072A2
:10568000354B1A60344A126852F00102324B1A60EC
:1056900001607047304A126832F440722E4B1A6033
:1056A0002D4A126852F480722B4B1A602A4A1268F3
:1056B00052F00102284B1A6001807047264A126896
:1056C00032F44072244B1A60234A1268224B1A604B
:1056D000214A126852F001021F4B1A600170704794
:1056E0001E480068C00602D510201A4948761B489B
:1056F0000068800605D51748407E50F0080015491F
:10570000487616480068400605D51248407E50F09D
:1057100004001049487611480068000605D50D4878
:10572000407E50F002000B4948760C480068C005E6
:1057300005D50848407E50F00100064948760748E4
:105740000068800705D50348407E50F020000149DD
:1057500048767047D00A0120103C02400C3C0240C1
:1057600023016745043C0240AB89EFCDF8B5040046
:105770000D0001260027DFF8B001007E012801D1CD
:10578000022053E00120DFF8A01108764CF25030DF
:10579000FFF734FF0600F6B2002E41D15FF0FF3074
:1057A00028602068012813D161682069C0B200F028
:1057B0003EF84CF25030FFF721FF0600DFF86C0195
:1057C0000068DFF86C110840DFF86011086027E01E
:1057D000A0680700E068A1680818874220D2216904
:1057E000C9B2380000F05EF84CF25030FFF706FF07
:1057F0000600DFF83801006830F00200DFF82C11F5
:105800000860DFF82801006830F0F800DFF81C11AC
:105810000860F6B2002E01D02F6001E07F1CD9E7AE
:105820000020DFF8041108763000C0B2F2BD10B4D9
:105830000022DFF8F8301B6833F44073DFF8EC40E7
:105840002360DFF8E8301B681343DFF8E040236093
:1058500003290AD1DFF8D4301B6843F4004353F026
:105860000403DFF8C840236012E0012908D1DFF803
:10587000BC301B6853F00403DFF8B040236007E03E
:10588000DFF8A8301B6853F40043DFF8A040236022
:10589000DFF898301B6853F48033DFF890402360C2
:1058A00010BC704710B40022C9B2002902D10023F5
:1058B0001A0010E0C9B2012903D14FF480731A0015
:1058C00009E0C9B2022903D14FF400731A0002E0C3
:1058D0004FF440731A000C2800D3001D134B1B68B3
:1058E00033F44073114C2360104B1B6813430F4C6F
:1058F00023600E4B1B6833F0F8030C4C23605FF001
:10590000F853B3FA83F3094C246810FA03F353F005
:1059100002032343054C2360044B1B6853F480337C
:10592000024C236010BC7047D00A0120103C02409A
:10593000FB7FFFFF01000020704703007F2008600D
:105940004FF4007010800020704701000020704765
:105950000100002070472DE9F84304000D001600F7
:105960001F00384800684FF4007101FB060000F189
:105970007F4818F57F08BFB24FF4007000FB07F9AD
:105980004A4641462800FEF76FF80020BDE8F28342
:105990002DE9F34F8BB014001D0000272A4E002084
:1059A00001902848006800F17F4010F57F000090CA
:1059B0005FF014085FF000090DF1140A4A464146F1
:1059C000504600F049F85FF4803A00980490DFF800
:1059D00078B0524604995846FEF746F8ADB24FF4F7
:1059E000007000FB05F003900C98029016484FF4ED
:1059F000007101FB040B039A02995846FEF734F834
:105A0000FFF7EEFD00200590022009900B20079083
:105A1000012008900120069001A905A8FFF7A6FE25
:105A20000A4807000A48874208D232680023390032
:105A30000220FFF787FD361D3F1DF3E700200DB064
:105A4000BDE8F08F200100202401002000000E0896
:105A500000000F080020704762F30F2262F31F421C
:105A6000401810F0030308D0C91A1FD3DB0748BF42
:105A700000F8012D28BF20F8022D130030B4144681
:105A80001546103928BF20E93C00FAD8490728BF3D
:105A900020E90C0048BF40F8042D890028BF20F8F9
:105AA000022D48BF00F8012D30BC7047C91818BF3F
:105AB00000F8012DCB0728BF00F8012D704700002A
:105AC0000200122008802E4870470200042008803F
:105AD0002C48704738B504000D00E4B2002C05D105
